:100000000C945D000C9485000C9485000C94850084
:100010000C9485000C9485000C9485000C9485004C
:100020000C9485000C9485000C9485000C94250498
:100030000C9485000C9485000C9485000C9485002C
:100040000C94DB030C9485000C94A9030C9483039B
:100050000C9485000C9485000C9485000C9485000C
:100060000C9485000C94850000000008000201003B
:100070000003040700000000000000000000000072
:10008000250028002B0000000000240027002A0083
:10009000040404040404040402020202020203032E
:1000A0000303030301020408102040800102040836
:1000B0001020010204081020FC0411241FBECFEF01
:1000C000D8E0DEBFCDBF11E0A0E0B1E0EEEAF7E19D
:1000D00002C005900D92A231B107D9F721E0A2E14B
:1000E000B1E001C01D92AD3EB207E1F710E0CDE5F1
:1000F000D0E004C02197FE010E94CF0BCC35D10780
:10010000C9F70E9434050C94D50B0C94000090E0C4
:10011000FC01EC55FF4F249180579F4FFC018491C7
:10012000882399F090E0880F991FFC01EA57FF4F50
:10013000A591B491FC01E458FF4F859194918FB73C
:10014000F894EC91E22BEC938FBF0895AF92BF929D
:10015000CF92DF92EF92FF920F931F93CF93DF9393
:100160006C017B018B01040F151FEB015E01AE18C2
:10017000BF08C017D10759F06991D601ED91FC91E4
:100180000190F081E02DC6010995892B79F7C50111
:10019000DF91CF911F910F91FF90EF90DF90CF9063
:1001A000BF90AF900895FC01538D448D252F30E012
:1001B000842F90E0821B930B541710F0CF96089574
:1001C00001970895FC01918D828D981761F0A28DA1
:1001D000AE0FBF2FB11D5D968C91928D9F5F9F7367
:1001E000928F90E008958FEF9FEF0895FC01918D1D
:1001F000828D981731F0828DE80FF11D858D90E08A
:1002000008958FEF9FEF0895FC01918D228D892F26
:1002100090E0805C9F4F821B91098F73992708950E
:1002200087E491E00E94040121E0892B09F420E099
:10023000822F089580E090E0892B29F00E94100120
:1002400081110C9400000895FC01A48DA80FB92F12
:10025000B11DA35ABF4F2C91848D90E001968F73EE
:100260009927848FA689B7892C93A089B1898C910D
:10027000837080648C93938D848D981306C002885C
:10028000F389E02D80818F7D80830895EF92FF9226
:100290000F931F93CF93DF93EC0181E0888F9B8DA9
:1002A0008C8D98131AC0E889F989808185FF15C063
:1002B0009FB7F894EE89FF896083E889F989808186
:1002C0008370806480839FBF81E090E0DF91CF9155
:1002D0001F910F91FF90EF900895F62E0B8D10E077
:1002E0000F5F1F4F0F731127E02E8C8D8E110CC0E6
:1002F0000FB607FCFACFE889F989808185FFF5CF31
:10030000CE010E942401F1CFEB8DEC0FFD2FF11DEA
:10031000E35AFF4FF0829FB7F8940B8FEA89FB896D
:1003200080818062CFCFCF93DF93EC01888D8823CB
:10033000B9F0AA89BB89E889F9898C9185FD03C048
:10034000808186FD0DC00FB607FCF7CF8C9185FF2D
:10035000F2CF808185FFEDCFCE010E942401E9CF4D
:10036000DF91CF91089590E0FC01E859FF4F24916F
:10037000FC01EC55FF4F3491FC01E057FF4FE49135
:10038000EE23C9F0222339F0233001F1A8F4213003
:1003900019F1223029F1F0E0EE0FFF1FE458FF4F72
:1003A000A591B4918FB7F894EC91611126C0309566
:1003B0003E233C938FBF08952730A9F02830C9F021
:1003C000243049F7809180008F7D03C080918000A8
:1003D0008F7780938000DFCF84B58F7784BDDBCFAC
:1003E00084B58F7DFBCF8091B0008F778093B00074
:1003F000D2CF8091B0008F7DF9CF3E2BDACF3FB7BF
:10040000F89480913D0190913E01A0913F01B091FF
:10041000400126B5A89B05C02F3F19F00196A11DEC
:10042000B11D3FBFBA2FA92F982F8827BC01CD013E
:10043000620F711D811D911D42E0660F771F881F9D
:10044000991F4A95D1F708958F929F92AF92BF92CC
:10045000CF92DF92EF92FF924B015C010E94FF016D
:100460006B017C010E94FF016C197D098E099F09B7
:10047000683E734081059105A8F321E0821A910836
:10048000A108B10888EEC80E83E0D81EE11CF11C5B
:1004900081149104A104B10429F7FF90EF90DF903B
:1004A000CF90BF90AF909F908F900895CF92DF92A2
:1004B000EF92FF92CF93DF93EC01603282E07807F6
:1004C000CCF5653B710514F064EB70E0898128E898
:1004D00030E0281B310987FD3395220F331F220F8F
:1004E000331F6901330FEE08FF088A8128E532E0E7
:1004F000281B310987FD3395220F331F220F331F2D
:10050000032E000C440B550B2C193D094E095F09B5
:10051000DB0177FF02C0B0E0A0E00E948A0B24EB71
:1005200030E040E050E00E94600BC20ED31EE41E9B
:10053000F51EB601E881EC3070F5298188E890E07D
:10054000821B910927FD9395880F991F880F991F8A
:10055000681779077CF02A8188E592E0821B91096F
:1005600027FD9395880F991F880F991F68177907A2
:100570000CF4CB010297880F991F4FB7F8942E2FD8
:1005800030E0F901EE0FFF1FE20FF31FEC5EFE4FAC
:10059000928381834FBFDF91CF91FF90EF90DF90E7
:1005A000CF9008951F93CF93DF93EC01162F88818E
:1005B0008C3008F04DC0862F0E9487008881282F3C
:1005C00030E0F901EE0FFF1FE20FF31FEC5EFE4F6C
:1005D0001F736081607C612B608319821A822CE01A
:1005E000622F0E94C30B829FB001112430E020E0F3
:1005F000AB01420F531FFA01EE0FFF1FE40FF51F6F
:10060000EC5EFE4F908196FD16C02F5F3F4F2C3061
:10061000310571F781110FC01092800082E0809344
:1006200081001092850010928400B19A80916F0031
:10063000826080936F00E8818E2F90E0FC01EE0FC6
:10064000FF1FE80FF91FEC5EFE4F808180648083FE
:100650008881DF91CF911F91089560E082E00E9430
:10066000B30160E083E00E94B30160E087E00E9494
:10067000B30160E088E00E94B30164E670E080E0CE
:1006800090E00C94240260E082E00E94B30161E0FB
:1006900083E00E94B30161E087E00E94B30160E063
:1006A00088E00C94B30161E082E00E94B30160E055
:1006B00083E00E94B30160E087E00E94B30161E043
:1006C00088E00C94B30161E082E00E94B30160E035
:1006D00083E00E94B30161E087E00E94B30160E023
:1006E00088E00C94B30160E082E00E94B30161E015
:1006F00083E00E94B30160E087E00E94B30161E003
:1007000088E00C94B3011F920F920FB60F92112440
:100710002F933F934F935F936F937F938F939F9309
:10072000AF93BF93EF93FF9387E491E00E9424017E
:10073000FF91EF91BF91AF919F918F917F916F91B9
:100740005F914F913F912F910F900FBE0F901F908F
:1007500018951F920F920FB60F9211242F938F931B
:100760009F93EF93FF93E0915701F091580180819F
:10077000E0915D01F0915E0182FD1BC0908180914E
:1007800060018F5F8F7320916101821741F0E091CA
:100790006001F0E0E95BFE4F958F80936001FF916F
:1007A000EF919F918F912F910F900FBE0F901F90FF
:1007B00018958081F4CF1F920F920FB60F921124DB
:1007C0002F933F938F939F93AF93BF938091390162
:1007D00090913A01A0913B01B0913C0130913801D8
:1007E00023E0230F2D3758F50196A11DB11D20934D
:1007F00038018093390190933A01A0933B01B09363
:100800003C0180913D0190913E01A0913F01B0914A
:1008100040010196A11DB11D80933D0190933E01C1
:10082000A0933F01B0934001BF91AF919F918F91F1
:100830003F912F910F900FBE0F901F90189526E8B3
:10084000230F0296A11DB11DD2CF1F920F920FB69A
:100850000F9211242F933F934F935F936F937F9346
:100860008F939F93AF93BF93CF93DF93EF93FF93B8
:1008700080911201C0911301D0E087FF24C0109233
:10088000850010928400809112018F5F8093120185
:1008900080911201082E000C990B8C179D0724F4EF
:1008A000809112018C30C4F1809184009091850078
:1008B000049680349C4908F47AC080918400909119
:1008C0008500049676C080911201082E000C990BC9
:1008D0008C179D07C4F6E09112018E2FEE0F990B35
:1008E000FC01EE0FFF1FE80FF91FEC5EFE4F808149
:1008F00086FFC9CFE09112018E2FEE0F990BFC01FC
:10090000EE0FFF1FE80FF91FEC5EFE4F808160E0E5
:100910008F730E94B301B7CF20918400309185007E
:10092000E09112018E2FEE0F990BFC01EE0FFF1FCD
:10093000E80FF91FEC5EFE4F81819281820F931FB9
:100940009093890080938800E09112018E2FEE0F22
:10095000990BFC01EE0FFF1FE80FF91FEC5EFE4F35
:10096000808186FF11C0E09112018E2FEE0F990B4E
:10097000FC01EE0FFF1FE80FF91FEC5EFE4F8081B8
:1009800061E08F730E94B301FF91EF91DF91CF91EE
:10099000BF91AF919F918F917F916F915F914F9197
:1009A0003F912F910F900FBE0F901F90189580E4EC
:1009B0009CE990938900809388008FEF80931201C7
:1009C000E3CFFC01909113019C3098F481E0890FF2
:1009D000809313019083892F90E0FC01EE0FFF1F9D
:1009E000E80FF91FEC5EFE4F88EB9BE0928381835A
:1009F00008958FEF80830895E7E4F1E01382128277
:100A000088EE93E0A0E0B0E084839583A683B7836B
:100A100084E091E09183808385EC90E095878487E2
:100A200084EC90E09787868780EC90E0918B808BB8
:100A300081EC90E0938B828B82EC90E0958B848BA1
:100A400086EC90E0978B868B118E128E138E148E0F
:100A50008AEE91E00E94E10487EE91E00E94E104B9
:100A600084EE91E00C94E104789484B5826084BDB6
:100A700084B5816084BD85B5826085BD85B58160A2
:100A800085BD80916E00816080936E001092810020
:100A900080918100826080938100809181008160DB
:100AA000809381008091800081608093800080919C
:100AB000B10084608093B1008091B0008160809328
:100AC000B00080917A00846080937A0080917A00EF
:100AD000826080937A0080917A00816080937A00AE
:100AE00080917A00806880937A001092C100E09132
:100AF0005701F091580182E08083E0915301F09119
:100B000054011082E0915501F09156018FEC8083E1
:100B100010925F01E0915B01F0915C0186E08083BF
:100B2000E0915901F0915A01808180618083E091C8
:100B30005901F0915A01808188608083E0915901C8
:100B4000F0915A01808180688083E0915901F09191
:100B50005A0180818F7D808369E070E08AEE91E0A8
:100B60000E94D20265E070E087EE91E00E94D2021E
:100B70006AE070E084EE91E00E94D20270E060E0F2
:100B80008AEE91E00E94560264EB70E084EE91E000
:100B90000E9456026EE170E087EE91E00E945602DC
:100BA00065E270E08AEE91E00E94560282E00E94C7
:100BB000870083E00E94870087E00E94870088E02A
:100BC0000E94870060E082E00E94B30160E083E061
:100BD0000E94B30160E087E00E94B30160E088E01A
:100BE0000E94B30168E873E180E090E00E94240273
:100BF000C2ED4C2E512CD5E2AD2EB12C14EBE12ED2
:100C0000F12C0EE1C02ED12CBAE56B2E712CA8E789
:100C10008A2E912C84E480937C0080917A008064F9
:100C200080937A0080917A0086FDFCCF80917800D5
:100C3000C0917900DC2FC82FD0934601C0934501A5
:100C4000CE0181599140059708F0A7C0B0924201AA
:100C5000A092410100914101109142010A35110514
:100C600094F4B8018AEE91E00E94560267E070E0C9
:100C700080E090E00E9424020F5F1F4F109342011A
:100C800000934101E7CF109244011092430120905C
:100C900043013090440192E0291631040CF060C009
:100CA000F0924201E0924101009141011091420114
:100CB0000E31110504F1B80184EE91E00E94560254
:100CC000B201601B710B87EE91E00E945602B801E1
:100CD000759567958AEE91E00E9456026AE070E091
:100CE00080E090E00E94240201501109109342011B
:100CF00000934101D9CFD0924201C09241010091AD
:100D0000410110914201043B110514F5B80184EE34
:100D100091E00E945602B201601B710B87EE91E0D8
:100D20000E945602B8010F5F1F4F77FDB8017595FD
:100D300067958AEE91E00E9456026AE070E080E0DA
:100D400090E00E9424021093420100934101D7CF0A
:100D50008FEF281A380A309244012092430197CF2E
:100D60007092420160924101009141011091420153
:100D70000532110594F0B8018AEE91E00E94560206
:100D800067E070E080E090E00E94240201501109C9
:100D90001093420100934101E7CFCE018659914063
:100DA000039708F0D9C0D0924201C092410100914E
:100DB000410110914201043B110594F4B80187EE02
:100DC00091E00E94560267E070E080E090E00E94AF
:100DD00024020F5F1F4F1093420100934101E7CFA0
:100DE000B0924201A0924101009141011091420153
:100DF0000A35110594F4B8018AEE91E00E9456027A
:100E000067E070E080E090E00E9424020F5F1F4FD7
:100E10001093420100934101E7CF109244011092D8
:100E200043012090430130904401F0924201E0924E
:100E3000410192E0291631040CF058C000914101A3
:100E4000109142010E311105F4F0B80184EE91E0E9
:100E50000E945602B80187EE91E00E945602B80146
:100E6000759567958AEE91E00E9456026AE070E0FF
:100E700080E090E00E942402015011091093420189
:100E800000934101DBCFD0924201C0924101009119
:100E9000410110914201043B110504F5B80184EEB3
:100EA00091E00E945602B80187EE91E00E9456023E
:100EB000B8010F5F1F4F77FDB801759567958AEEF2
:100EC00091E00E9456026AE070E080E090E00E94AB
:100ED00024021093420100934101D9CF8FEF281AC9
:100EE000380A30924401209243019BCF0091410186
:100EF000109142010E31110594F0B80187EE91E096
:100F00000E94560267E070E080E090E00E942402B8
:100F1000015011091093420100934101E7CF7092F3
:100F2000420160924101009141011091420105325C
:100F3000110594F0B8018AEE91E00E94560267E034
:100F400070E080E090E00E942402015011091093AB
:100F5000420100934101E7CFCE01895991400597A5
:100F600008F0C7C0B0924201A09241010091410136
:100F7000109142010031110594F0B8018AEE91E020
:100F80000E94560267E070E080E090E00E94240238
:100F9000015011091093420100934101E7CFD09213
:100FA0004201C09241010091410110914201083774
:100FB000110594F4B80187EE91E00E94560263E0B7
:100FC00070E080E090E00E9424020F5F1F4F1093BA
:100FD000420100934101E7CF109244011092430176
:100FE0000091430110914401043011050CF045C0FB
:100FF0009092420180924101209041013090420143
:1010000094EB291631049CF4B10187EE91E00E9423
:10101000560263E070E080E090E00E9424028FEFCF
:10102000281A380A3092420120924101E5CFF0920D
:101030004201E0924101209041013090420198E745
:10104000291631049CF0B10187EE91E00E9456020E
:1010500065E070E080E090E00E94240281E0281AC0
:1010600031083092420120924101E5CF0F5F1F4FBE
:101070001093440100934301B3CF8FE090E090932D
:1010800042018093410100914101109142010632D9
:10109000110594F4B8018AEE91E00E94560267E0CF
:1010A00070E080E090E00E9424020F5F1F4F1093D9
:1010B000420100934101E7CF9092420180924101A9
:1010C00000914101109142010E31110594F0B801D7
:1010D00087EE91E00E94560265E070E080E090E0CB
:1010E0000E94240201501109109342010093410112
:1010F000E7CFCE018E599140059708F0ADC0B09270
:101100004201A092410100914101109142010A3532
:10111000110594F4B8018AEE91E00E94560267E04E
:1011200070E080E090E00E9424020F5F1F4F109358
:10113000420100934101E7CF109244011092430114
:10114000209043013090440192E0291631040CF0C4
:1011500064C00E947303F0924201E0924101009149
:101160004101109142010E31110504F1B80184EEE4
:1011700091E00E945602B201601B710B87EE91E074
:101180000E945602B801759567958AEE91E00E941B
:1011900056026AE070E080E090E00E942402015074
:1011A00011091093420100934101D9CF0E946303BA
:1011B000D0924201C092410100914101109142013F
:1011C000043B110514F5B80184EE91E00E9456022B
:1011D000B201601B710B87EE91E00E945602B801CC
:1011E0000F5F1F4F77FDB801759567958AEE91E007
:1011F0000E9456026AE070E080E090E00E942402C3
:101200001093420100934101D7CF8FEF281A380A7B
:10121000309244012092430193CF0E942D0370929B
:101220004201609241010091410110914201053259
:10123000110594F0B8018AEE91E00E94560267E031
:1012400070E080E090E00E942402015011091093A8
:10125000420100934101E7CFCE01835A91400497A8
:1012600008F0E3C0D0924201C092410100914101D7
:1012700010914201043B110594F4B80187EE91E00E
:101280000E94560267E070E080E090E00E94240235
:101290000F5F1F4F1093420100934101E7CFB092BF
:1012A0004201A092410100914101109142010A3591
:1012B000110594F4B8018AEE91E00E94560267E0AD
:1012C00070E080E090E00E9424020F5F1F4F1093B7
:1012D000420100934101E7CF109244011092430173
:1012E000209043013090440192E0291631040CF023
:1012F00060C00E945303F0924201E09241010091CC
:101300004101109142010E311105F4F0B80184EE53
:1013100091E00E945602B80187EE91E00E945602C9
:10132000B801759567958AEE91E00E9456026AE0D1
:1013300070E080E090E00E942402015011091093B7
:10134000420100934101DBCF0E944303D09242014E
:10135000C09241010091410110914201043B1105ED
:1013600004F5B80184EE91E00E945602B80187EEC0
:1013700091E00E945602B8010F5F1F4F77FDB80140
:10138000759567958AEE91E00E9456026AE070E0DA
:1013900080E090E00E9424021093420100934101FA
:1013A000D9CF8FEF281A380A309244012092430196
:1013B00097CF0E942D03F0924201E09241010091EB
:1013C0004101109142010E31110594F0B80187EEF0
:1013D00091E00E94560267E070E080E090E00E9499
:1013E0002402015011091093420100934101E7CFFB
:1013F00070924201609241010091410110914201BD
:101400000532110594F0B8018AEE91E00E9456026F
:1014100067E070E080E090E00E9424020150110932
:101420001093420100934101E7CFCE01875A9140CA
:10143000039708F0CDC0B0924201A0924101009103
:101440004101109142010031110594F0B8018AEE7A
:1014500091E00E94560267E070E080E090E00E9418
:101460002402015011091093420100934101E7CF7A
:10147000D0924201C092410100914101109142017C
:101480000837110594F4B80187EE91E00E945602E6
:1014900063E070E080E090E00E9424020F5F1F4F45
:1014A0001093420100934101E7CF10924401109242
:1014B00043010091430110914401043011050CF0E7
:1014C00049C00E9473039092420180924101209092
:1014D00041013090420194EB291631049CF4B10192
:1014E00087EE91E00E94560263E070E080E090E0B9
:1014F0000E9424028FEF281A380A3092420120926B
:101500004101E5CF0E946303F0924201E092410164
:10151000209041013090420198E7291631049CF057
:10152000B10187EE91E00E94560265E070E080E034
:1015300090E00E94240281E0281A31083092420192
:1015400020924101E5CF0F5F1F4F1093440100939C
:101550004301AFCF0E942D038FE090E090934201B2
:101560008093410100914101109142010632110521
:1015700094F4B8018AEE91E00E94560267E070E0B0
:1015800080E090E00E9424020F5F1F4F1093420101
:1015900000934101E7CF9092420180924101009176
:1015A0004101109142010E31110594F0B80187EE0E
:1015B00091E00E94560265E070E080E090E00E94B9
:1015C0002402015011091093420100934101E7CF19
:1015D000CE018A5A9140029790F5109244011092E0
:1015E0004301C0914301D0914401C230D1050CF0B8
:1015F0005AC00E94730364E873E080E090E00E94A8
:1016000024020E942D0364E670E080E090E00E94D6
:1016100024020E94630364E873E080E090E00E948B
:1016200024020E942D0364E670E080E090E00E94B6
:1016300024022196D0934401C0934301D2CFCC3AE7
:10164000D1408CF11092440110924301C0914301AA
:10165000D0914401C330D10534F50E94530364E8AE
:1016600073E080E090E00E9424020E942D0364E673
:1016700070E080E090E00E9424020E94430364E84E
:1016800073E080E090E00E9424020E942D0364E653
:1016900070E080E090E00E9424022196D093440103
:1016A000C0934301D3CF80E090E0892B09F4B2CA04
:1016B0000E941001882309F4AACA0E940000A4CA4B
:1016C000052E97FB1EF400940E94770B57FD07D060
:1016D0000E94920B07FC03D04EF40C94770B5095AC
:1016E0004095309521953F4F4F4F5F4F089590950E
:1016F0008095709561957F4F8F4F9F4F08950E9401
:10170000B40BA59F900DB49F900DA49F800D911DCB
:1017100011240895B7FF0C947F0B0E947F0B821B4E
:10172000930B0895A1E21A2EAA1BBB1BFD010DC04D
:10173000AA1FBB1FEE1FFF1FA217B307E407F50781
:1017400020F0A21BB30BE40BF50B661F771F881F5D
:10175000991F1A9469F760957095809590959B01F3
:10176000AC01BD01CF010895A29FB001B39FC0019C
:10177000A39F700D811D1124911DB29F700D811DBD
:101780001124911D0895991B79E004C0991F9617A3
:1017900008F0961B881F7A95C9F780950895EE0F7B
:0E17A000FF1F0590F491E02D0994F894FFCFFF
:1017AE00000000004601A600D30093010401E200F0
:0217BE00F60033
:00000001FF
